:100000000C9461000C947E000C947E000C947E0095
:100010000C947E000C947E000C947E000C947E0068
:100020000C947E000C947E000C947E000C947E0058
:100030000C947E000C947E000C947E000C947E0048
:100040000C9470020C947E000C947E000C947E0044
:100050000C947E000C947E000C947E000C947E0028
:100060000C947E000C947E00000000002400270009
:100070002A0000000000250028002B0000000000DE
:1000800023002600290004040404040404040202DA
:100090000202020203030303030301020408102007
:1000A0004080010204081020010204081020000012
:1000B0000008000201000003040700000000000027
:1000C000000011241FBECFEFD8E0DEBFCDBF11E08E
:1000D000A0E0B1E0EAE9FAE002C005900D92A43098
:1000E000B107D9F722E0A4E0B1E001C01D92AC391C
:1000F000B207E1F70E94BA020C944B050C94000081
:10010000833081F028F4813099F08230A9F008958D
:100110008730A9F08830C9F08430B1F48091800034
:100120008F7D03C0809180008F7780938000089539
:1001300084B58F7784BD089584B58F7DFBCF809182
:10014000B0008F778093B00008958091B0008F7DCC
:10015000F9CFCF93DF93282F30E0F901E255FF4F1D
:100160008491F901E656FF4FD491F901EA57FF4F08
:10017000C491CC23A1F081110E948000EC2FF0E00B
:10018000EE0FFF1FE458FF4FA591B491EC91ED23C2
:1001900081E090E009F480E0DF91CF91089580E064
:1001A00090E0FACF1F93CF93DF93282F30E0F9012F
:1001B000E255FF4F8491F901E656FF4FD491F901C2
:1001C000EA57FF4FC491CC23A9F0162F81110E944A
:1001D0008000EC2FF0E0EE0FFF1FEE58FF4FA591CF
:1001E000B4918FB7F894EC91111108C0D095DE232B
:1001F000DC938FBFDF91CF911F910895DE2BF8CF55
:10020000CF93DF9390E0FC01E656FF4F24918A578D
:100210009F4FFC0184918823D1F090E0880F991FB3
:10022000FC01E859FF4FA591B491FC01EE58FF4F36
:10023000C591D491623071F49FB7F8943C91822FAC
:10024000809583238C93E8812E2B28839FBFDF9199
:10025000CF9108958FB7F894EC912E2B2C938FBFEC
:10026000F6CFEF92FF920F931F93CF93DF93E82E79
:10027000F62ED0E0C0E0042F10E0B8010C2E02C032
:10028000759567950A94E2F761708E2D0E94D200F1
:1002900061E08F2D0E94D20060E08F2D0E94D2007D
:1002A0002196C830D10549F7DF91CF911F910F9169
:1002B000FF90EF9008954F925F926F927F928F928E
:1002C0009F92AF92BF92CF92DF92EF92FF920F93E5
:1002D0001F93CF93DF936CE5E62E62E0F62ED0E01D
:1002E000C0E073E0472E512C66246A94712C4701BC
:1002F00010E000E0CE01AA24A394B12C009721F0D5
:10030000AA0CBB1C0197FACFC801CC24C394D12CF2
:10031000009721F0CC0CDD1C0197FACFF4018191FC
:100320004F01882309F448C060E083E00E94D200B6
:1003300060E086E00E94D200A3014A195B0964E0F4
:1003400082E00E9431014C2D67E085E00E9431017E
:1003500061E083E00E94D20061E086E00E94D2006A
:1003600060E086E00E94D20040E067E085E00E9405
:10037000310161E086E00E94D2000F5F1F4F08301C
:10038000110509F0B7CF2196F8E0EF0EF11CC83047
:10039000D10509F0ACCFDF91CF911F910F91FF9064
:1003A000EF90DF90CF90BF90AF909F908F907F9015
:1003B0006F905F904F900895C2010197F1F7DDCFE4
:1003C000DF92EF92FF920F931F93CF93DF93CCE5D1
:1003D000D2E0AE0130E020E061E0A7E0B0E090E0E4
:1003E00080E0FA01E80FF91F2817390739F08D016D
:1003F000081B190B2017310709F070C060830196A4
:100400008830910571F72F5F3F4F485F5F4F28306D
:10041000310529F710E000E084E6E82EF12CDD2418
:10042000D394C801B7010E942305892B41F4609140
:1004300004016D256093040180E10E94D2000E94B6
:100440005B010F5F1F4F043F81E0180751F71092C7
:10045000040160E080E10E94D200188219821A82B1
:100460001B821C821D821E821F82289692E0CC393C
:10047000D90799F70E945B0184E090E09093160100
:100480008093150190931801809317011092130126
:100490001092120182E090E090931A028093190268
:1004A000109211011092100110925B02EBE1F2E048
:1004B00080E28083818382838383848385838683B0
:1004C0008783389692E0EB35F90799F7DF91CF9162
:1004D0001F910F91FF90EF90DF90089510828FCFC2
:1004E0001F920F920FB60F9211242F933F938F9369
:1004F0009F93AF93BF9380910A0190910B01A091BC
:100500000C01B0910D013091090123E0230F2D372B
:1005100058F50196A11DB11D2093090180930A0190
:1005200090930B01A0930C01B0930D0180910501F4
:1005300090910601A0910701B09108010196A11DBB
:10054000B11D8093050190930601A0930701B0931C
:100550000801BF91AF919F918F913F912F910F9083
:100560000FBE0F901F90189526E8230F0296A11D2D
:10057000B11DD2CF789484B5826084BD84B581608A
:1005800084BD85B5826085BD85B5816085BD80915E
:100590006E00816080936E001092810080918100D6
:1005A00082608093810080918100816080938100CE
:1005B000809180008160809380008091B100846090
:1005C0008093B1008091B00081608093B0008091F1
:1005D0007A00846080937A0080917A0082608093B0
:1005E0007A0080917A00816080937A0080917A000D
:1005F000806880937A001092C100C2E061E08C2F85
:100600000E940001CF5FCE30C9F762E08EE00E9409
:10061000000162E08FE00E94000161E080E10E9441
:1006200000010E94E00120E2922E06E010E0772413
:100630007394C4E0D0E03BE5E32E32E0F32E88244F
:1006400083946624639440E0C42E40E0D42E8FE46B
:10065000582E98E5492EE0911901F0911A01B3E066
:10066000EE0FFF1FBA95E1F7E55EFD4F809199010E
:1006700090919A01E80FF91F908220911701309113
:100680001801809115019091160140911902509125
:100690001A024130510509F488C00CF072C0215093
:1006A0003109452B09F47CC02091150130911601C8
:1006B0008091170190911801F901A3E0EE0FFF1F3F
:1006C000AA95E1F7E55EFD4FE80FF91F40814F3431
:1006D00049F02730310531F0009721F0232B11F03C
:1006E000079711F40E94E001409115015091160105
:1006F0002091170130911801CA01E3E0880F991F7A
:10070000EA95E1F7FC01E55EFD4FE20FF31F608122
:10071000683561F460911201709113011092140117
:100720006F5F7F4F7093130160931201855E9D4F41
:10073000FC01E20FF31F508280911201909113018E
:10074000FC01EE0FFF1FE75EFE4F51834083FC016B
:10075000EE0FFF1FE756FE4F31832083A9E1B1E082
:10076000E9E9F1E01816190614F512962D913C915D
:1007700013972D933D9322813381219331930197D8
:10078000F1CF4230510551F001964330510509F047
:100790008BCF909316018093150186CF2F5F3F4F2B
:1007A00030931801209317017FCF0197F2CF8091EA
:1007B0001001909111010196909311018093100105
:1007C000059721F4109211011092100180911001EF
:1007D00090911101892B31F580911401811122C072
:1007E0000E94B004B8010E942305019690930F0166
:1007F00080930E010E94B004B8010E942305E0918D
:100800000E01F0910F0123E0EE0FFF1F2A95E1F793
:10081000E80FF91FE45EFD4F80818F3409F34082B9
:100820008092140110925B0284EFA82EBB24B39433
:1008300080915B02811113C08EE00E94A900892B78
:10084000B1F58091190290911A020196BE010E94A1
:10085000230590931A028093190260925B024CE583
:1008600052E02BE132E090E080E0F901E80FF91F5F
:100870006081FA01E80FF91F603221F17082019660
:100880008830910591F7485F5F4F285F3F4FE21630
:10089000F30649F70E945B0181E0A81AB10841F60E
:1008A000C114D10409F4D7CE0E940000D0CE8FE04D
:1008B0000E94A900892B99F68091190290911A0241
:1008C0000396C4CF1082DBCF8F929F92AF92BF92DC
:1008D000CF92DF92EF92FF92CF93DF93EC0168818A
:1008E00079818A819B81611571058105910521F4CA
:1008F00064E279ED8BE597E02DE133EF41E050E0E4
:100900000E94C00449015A019B01AC01A7EAB1E46D
:100910000E94DF046B017C01ACEEB4EFA5019401F1
:100920000E94ED04DC01CB018C0D9D1DAE1DBF1D91
:10093000B7FF03C00197A109B04888839983AA83B0
:10094000BB839F77DF91CF91FF90EF90DF90CF90A7
:10095000BF90AF909F908F9008950E946404089577
:1009600080E091E00E9464040895B0E0A0E08093EC
:10097000000190930101A0930201B0930301089537
:10098000052E97FB1EF400940E94D70457FD07D054
:100990000E94F20407FC03D04EF40C94D704509547
:1009A0004095309521953F4F4F4F5F4F089590955B
:1009B0008095709561957F4F8F4F9F4F08950E944E
:1009C0001405A59F900DB49F900DA49F800D911DBF
:1009D00011240895B7FF0C94DF040E94DF04821BEA
:1009E000930B0895A1E21A2EAA1BBB1BFD010DC09B
:1009F000AA1FBB1FEE1FFF1FA217B307E407F507CF
:100A000020F0A21BB30BE40BF50B661F771F881FAA
:100A1000991F1A9469F760957095809590959B0140
:100A2000AC01BD01CF010895A29FB001B39FC001E9
:100A3000A39F700D811D1124911DB29F700D811D0A
:100A40001124911D089597FB072E16F4009407D0EA
:100A500077FD09D00E94370507FC05D03EF490953C
:100A600081959F4F0895709561957F4F0895AA1BBA
:100A7000BB1B51E107C0AA1FBB1FA617B70710F089
:100A8000A61BB70B881F991F5A95A9F780959095BB
:0A0A9000BC01CD010895F894FFCFDA
:040A9A000100000057
:00000001FF
